:0E0000000C946D000C9400000C9400000C9405
:10000E0000000C9400000C9400000C9400000C9462
:10001E0000000C9400000C9400000C9400000C9452
:10002E0000000C9400000C9400000C9400000C9442
:10003E0000000C9400000C9400000C9400000C9432
:10004E0000000C9400000C9400000C9400000C9422
:10005E0000000C9400000C9400000C9400000C9412
:10006E0000000C9400000C9400000C94000010276B
:10007E00E80364000A0001000010000110000100F6
:10008E00000020543A2025642E2564430020553A62
:10009E002025642E2564252520002046554D3A2026
:1000AE00256470706D200020416C61726D6161611C
:1000BE00200001002D4E414E00494E460000010029
:1000CE0004008E0001000002C0000000F894EE272C
:1000DE00EFBBF1E0F5BFE5BF8DE0A2E0BB27ED93EE
:1000EE008A95E9F780E094E0A0E0B1E0ED93019706
:1000FE00E9F7ECECF0E085919591009761F0A59110
:10010E00B59105901590BF01F00105900D920197E4
:10011E00E1F7FB01F0CFE0E0EEBBEFEFEDBFE4E087
:10012E00EEBFC0E0D2E00C94DD003A9A4298A4E112
:10013E00B0E00E945503429A08953A983299FECF44
:10014E00329BFECF3299FECF08953324E8E03E165F
:10015E0088F4329BFECF88EC8A95F1F7329B05C06E
:10016E00E42DEE0FE1604E2E01C0440C3299FECF0D
:10017E003394ECCFE42D0895AA93E881E0937C00AC
:10018E0083E48A95F1F7E0917A00E064E0937A00D7
:10019E00E0917A00E071E1F3E0917A00E061E093A2
:1001AE007A00E0917800F0917900CCC0E0E8E0931D
:1001BE006100E0E0E0936100E1B9E2B9EFEFE4B98C
:1001CE00E0E0E5B9E7B9E8B9EAB9EBB9E4BDE5BDF8
:1001DE00E6BDE7BDE8BDE0938000E0938100E093CB
:1001EE008500E0938400E0938700E0938600E0931F
:1001FE008900E0938800E0938B00E0938A00E093FF
:10020E00B600E093B000E093B100E093B200E0934B
:10021E00B300E093B400E0936E00E0936F00E093C0
:10022E007000E0936900EDBBE0936800E093C000BE
:10023E00E8E1E093C100E6E0E093C200E0E0E09385
:10024E00C500E1E8E093C400E0E0E093C900E0E817
:10025E00E0BFE0E0E0937F00E0937E00E0937C005F
:10026E00E5E8E0937A00E0E0E0937B00ECBDE093FC
:10027E00BC002D9A2C982E982F9AA5E07DDFBE2ECD
:10028E00CF2E53DF5ADF61DF6E2E5FDF5E2E5DDF16
:10029E008E2E5BDF7E2E59DFAE2EE0E9F0E0FA9374
:1002AE00EA93E82D0E942A03E72D0E942A0388E094
:1002BE008CD12A96EBE9F0E0FA93EA93E62D0E94B0
:1002CE002A03E52D0E942A0388E07FD12A96E8EAC8
:1002DE00F0E0FA93EA93EB2DFC2D0E9467030E9447
:1002EE00740384E072D12696EEE1E81540F0E3E265
:1002FE006E1628F0E0EBF4E0EB15FC058CF42C9A6E
:10030E002E9AA0EDB7E00E9455032E982D982F98A7
:10031E00E5EBF0E0FA93EA9380E057D1229604C021
:10032E002C982E982D9A2F9AA4ECB9E00E94550382
:10033E00A4CFFFCFAA93E091C000E072E1F3E88171
:10034E00E093C60021960895BA93AA93AA81F2DF8C
:10035E00A881B981ED91FD913196FE93EE9323968E
:10036E000895BA93AA9326970E94790310E0AC855C
:10037E00BD85E0E0F0E0ED93FC93EA89FB893196D0
:10038E00EA8BFB8B3197E4912E2FE03009F415C1E7
:10039E00E12FE03039F4253211F411E002C00E9451
:1003AE0030030AC1E130A9F4253219F40E9430035A
:1003BE0002C112E040E000E02D3211F401E0FCC079
:1003CE002B3211F44BE2F8C0203211F440E2F4C0AB
:1003DE0002C0E23039F450E013E0203311F400682B
:1003EE00EBC003C0E33009F0E7C0203310F02A332E
:1003FE0008F007C0AAE05A9F502DE22FE0535E0F7F
:10040E00DBC0E22FE33649F40E943703E889F9890D
:10041E00A481AA930E943D03CEC0E33741F40E940B
:10042E0037030E9443030E9411031E2F0AC0E037B8
:10043E0061F40E9437030E9443030E941D031E2F86
:10044E00086002600F7730E034C0E43611F0E93610
:10045E0011F4046002C0E53731F4ECE7F0E0EE830E
:10046E00FF8315E00CC0E83511F4086003C0E837CF
:10047E0009F0A1C0E6E8F0E0EE83FF8314E002FF8E
:10048E0014C00E9437030E944D03AB85AA233AF491
:10049E00EA85FB850E946303EA87FB874DE24030C5
:1004AE0011F01F5F01C00B7F04C00E9437030E9432
:1004BE004D0300FD11C0151778F407FF08C002FFA9
:1004CE0004C00B7F242F115001C020E301C020E295
:1004DE000E9430035150EFCF312F01FF17C0303043
:1004EE00A1F003FF06C0EE81FF812591EE83FF830D
:1004FE0005C0AE81BF812D91AE83BF830E943003B4
:10050E00503009F051503150EACF4BC020E3EE810C
:10051E00FF810E947003E887F987EE81FF81329692
:10052E00EE83FF83E885F985AA85BB85AE17BF07E5
:10053E0050F02F5FA885B985EA85FB85EA1BFB0B7A
:10054E00EA87FB87EFCF2A3328F003FF02C0295F2B
:10055E0001C0295D04FD1AC0213320F4A885B98598
:10056E00119709F409C0531710F000FF01C013C012
:10057E0020E207FF0BC020E3006102FF07C00B7FE4
:10058E004A930E943D03503009F051500E943003AF
:10059E00503009F051503150A885B985129708F0A6
:1005AE00B5CF00FF08C0503031F05150E0E2EA9371
:1005BE000E943D03F8CF10E0E0CEAC85BD850E94D1
:1005CE006C030E94800364960895FF92F82E26977E
:1005DE001A930A93DE0114960E945F038D01E0E0E8
:1005EE00EC83ED83EE83EF83DE0118960E945F03AA
:1005FE000E946C03FA93EA931A930A93EBEAF1E0E2
:10060E00FA93EA93DE011896ACDE198108812896DA
:10061E00FF900895BA93AA93A991B991EE27FF2757
:10062E006D91662311F03196FBCF0895BA93AA937C
:10063E00AA27BB27E991F9910590002011F0119698
:10064E00FBCFFD010895FF27662777270E947403CD
:10065E0008952A93AD85BE85EF85F889099508958D
:10066E00E889F9893497E88BF98B0895AD85BE85B5
:10067E00EF85F88909950895A889B98914960E947D
:10068E006C03EE83FF83AE81BF810895A889B9897B
:10069E0014960E946C03EA87FB870895109639F032
:1006AE0088E893E10197F1F7A8951197C9F7089596
:1006BE000024AF0DB01D0895F195E195F040089519
:1006CE006F2F660F660B762F0895ED91FC911197A3
:1006DE0008950590F491E02D08957A936A93FA9314
:1006EE00EA9308955A934A933A932A931A930A9344
:1006FE0008955D814C813B812A811981088108957D
:00000001FF
